{
  "_format": "hh-sol-artifact-1",
  "contractName": "WavePortal",
  "sourceName": "contracts/WavePortal.sol",
  "abi": [
    {
      "inputs": [],
      "stateMutability": "nonpayable",
      "type": "constructor"
    },
    {
      "inputs": [],
      "name": "getTotalWaves",
      "outputs": [
        {
          "internalType": "uint256",
          "name": "",
          "type": "uint256"
        }
      ],
      "stateMutability": "view",
      "type": "function"
    },
    {
      "inputs": [],
      "name": "getWavers",
      "outputs": [
        {
          "internalType": "uint256",
          "name": "",
          "type": "uint256"
        }
      ],
      "stateMutability": "view",
      "type": "function"
    },
    {
      "inputs": [],
      "name": "wave",
      "outputs": [],
      "stateMutability": "nonpayable",
      "type": "function"
    }
  ],
  "bytecode": "0x608060405234801561001057600080fd5b506100596040518060400160405280600f81526020017f536d61727420636f6e747261637421000000000000000000000000000000000081525061005e60201b6101dc1760201c565b6101e1565b6100fa81604051602401610072919061015f565b6040516020818303038152906040527f41304fac000000000000000000000000000000000000000000000000000000007bffffffffffffffffffffffffffffffffffffffffffffffffffffffff19166020820180517bffffffffffffffffffffffffffffffffffffffffffffffffffffffff83818316178352505050506100fd60201b60201c565b50565b60008151905060006a636f6e736f6c652e6c6f679050602083016000808483855afa5050505050565b600061013182610181565b61013b818561018c565b935061014b81856020860161019d565b610154816101d0565b840191505092915050565b600060208201905081810360008301526101798184610126565b905092915050565b600081519050919050565b600082825260208201905092915050565b60005b838110156101bb5780820151818401526020810190506101a0565b838111156101ca576000848401525b50505050565b6000601f19601f8301169050919050565b610625806101f06000396000f3fe608060405234801561001057600080fd5b50600436106100415760003560e01c8063635f29f8146100465780636fe15b44146100645780639a2cdc081461006e575b600080fd5b61004e61008c565b60405161005b91906104c0565b60405180910390f35b61006c6100d5565b005b610076610193565b60405161008391906104c0565b60405180910390f35b60006100d26040518060400160405280601281526020017f5765206861766520256420776176657273210000000000000000000000000000815250600180549050610275565b90565b6000808154809291906100e790610566565b91905055506001339080600181540180825580915050600190039060005260206000200160009091909190916101000a81548173ffffffffffffffffffffffffffffffffffffffff021916908373ffffffffffffffffffffffffffffffffffffffff1602179055506101916040518060400160405280601b81526020017f2573206861732077617665642120546f74616c5761766573202573000000000081525033600054610311565b565b60006101d56040518060400160405280601781526020017f5765206861766520256420746f74616c207761766573210000000000000000008152506000610275565b6000905090565b610272816040516024016101f09190610430565b6040516020818303038152906040527f41304fac000000000000000000000000000000000000000000000000000000007bffffffffffffffffffffffffffffffffffffffffffffffffffffffff19166020820180517bffffffffffffffffffffffffffffffffffffffffffffffffffffffff83818316178352505050506103b0565b50565b61030d828260405160240161028b929190610490565b6040516020818303038152906040527f9710a9d0000000000000000000000000000000000000000000000000000000007bffffffffffffffffffffffffffffffffffffffffffffffffffffffff19166020820180517bffffffffffffffffffffffffffffffffffffffffffffffffffffffff83818316178352505050506103b0565b5050565b6103ab83838360405160240161032993929190610452565b6040516020818303038152906040527f07c81217000000000000000000000000000000000000000000000000000000007bffffffffffffffffffffffffffffffffffffffffffffffffffffffff19166020820180517bffffffffffffffffffffffffffffffffffffffffffffffffffffffff83818316178352505050506103b0565b505050565b60008151905060006a636f6e736f6c652e6c6f679050602083016000808483855afa5050505050565b6103e2816104f7565b82525050565b60006103f3826104db565b6103fd81856104e6565b935061040d818560208601610533565b610416816105de565b840191505092915050565b61042a81610529565b82525050565b6000602082019050818103600083015261044a81846103e8565b905092915050565b6000606082019050818103600083015261046c81866103e8565b905061047b60208301856103d9565b6104886040830184610421565b949350505050565b600060408201905081810360008301526104aa81856103e8565b90506104b96020830184610421565b9392505050565b60006020820190506104d56000830184610421565b92915050565b600081519050919050565b600082825260208201905092915050565b600061050282610509565b9050919050565b600073ffffffffffffffffffffffffffffffffffffffff82169050919050565b6000819050919050565b60005b83811015610551578082015181840152602081019050610536565b83811115610560576000848401525b50505050565b600061057182610529565b91507fffffffffffffffffffffffffffffffffffffffffffffffffffffffffffffffff8214156105a4576105a36105af565b5b600182019050919050565b7f4e487b7100000000000000000000000000000000000000000000000000000000600052601160045260246000fd5b6000601f19601f830116905091905056fea2646970667358221220d6d7f7fb38e6228b53ffa81bc7ea94a1e68cdcaea3d8b1813f2b9cd76039128064736f6c63430008040033",
  "linkReferences": {},
  "deployedLinkReferences": {}
}